{
  "_format": "hh-sol-artifact-1",
  "contractName": "UltcubeNFTCollection",
  "sourceName": "contracts/UltcubeNFTCollection.sol",
  "abi": [
    {
      "inputs": [],
      "stateMutability": "nonpayable",
      "type": "constructor"
    },
    {
      "anonymous": false,
      "inputs": [
        {
          "indexed": true,
          "internalType": "address",
          "name": "owner",
          "type": "address"
        },
        {
          "indexed": true,
          "internalType": "address",
          "name": "approved",
          "type": "address"
        },
        {
          "indexed": true,
          "internalType": "uint256",
          "name": "tokenId",
          "type": "uint256"
        }
      ],
      "name": "Approval",
      "type": "event"
    },
    {
      "anonymous": false,
      "inputs": [
        {
          "indexed": true,
          "internalType": "address",
          "name": "owner",
          "type": "address"
        },
        {
          "indexed": true,
          "internalType": "address",
          "name": "operator",
          "type": "address"
        },
        {
          "indexed": false,
          "internalType": "bool",
          "name": "approved",
          "type": "bool"
        }
      ],
      "name": "ApprovalForAll",
      "type": "event"
    },
    {
      "anonymous": false,
      "inputs": [
        {
          "indexed": true,
          "internalType": "address",
          "name": "from",
          "type": "address"
        },
        {
          "indexed": true,
          "internalType": "address",
          "name": "to",
          "type": "address"
        },
        {
          "indexed": true,
          "internalType": "uint256",
          "name": "tokenId",
          "type": "uint256"
        }
      ],
      "name": "Transfer",
      "type": "event"
    },
    {
      "inputs": [
        {
          "internalType": "address",
          "name": "to",
          "type": "address"
        },
        {
          "internalType": "uint256",
          "name": "tokenId",
          "type": "uint256"
        }
      ],
      "name": "approve",
      "outputs": [],
      "stateMutability": "nonpayable",
      "type": "function"
    },
    {
      "inputs": [
        {
          "internalType": "address",
          "name": "owner",
          "type": "address"
        }
      ],
      "name": "balanceOf",
      "outputs": [
        {
          "internalType": "uint256",
          "name": "",
          "type": "uint256"
        }
      ],
      "stateMutability": "view",
      "type": "function"
    },
    {
      "inputs": [
        {
          "internalType": "uint256",
          "name": "tokenId",
          "type": "uint256"
        }
      ],
      "name": "getApproved",
      "outputs": [
        {
          "internalType": "address",
          "name": "",
          "type": "address"
        }
      ],
      "stateMutability": "view",
      "type": "function"
    },
    {
      "inputs": [
        {
          "internalType": "address",
          "name": "owner",
          "type": "address"
        },
        {
          "internalType": "address",
          "name": "operator",
          "type": "address"
        }
      ],
      "name": "isApprovedForAll",
      "outputs": [
        {
          "internalType": "bool",
          "name": "",
          "type": "bool"
        }
      ],
      "stateMutability": "view",
      "type": "function"
    },
    {
      "inputs": [
        {
          "internalType": "address",
          "name": "recipient",
          "type": "address"
        },
        {
          "internalType": "string",
          "name": "tokenURI",
          "type": "string"
        }
      ],
      "name": "mintNFT",
      "outputs": [
        {
          "internalType": "uint256",
          "name": "",
          "type": "uint256"
        }
      ],
      "stateMutability": "nonpayable",
      "type": "function"
    },
    {
      "inputs": [
        {
          "internalType": "address",
          "name": "recipient",
          "type": "address"
        },
        {
          "internalType": "string",
          "name": "tokenURI",
          "type": "string"
        },
        {
          "internalType": "address",
          "name": "creator",
          "type": "address"
        }
      ],
      "name": "mintNFTAndPayCreator",
      "outputs": [
        {
          "internalType": "uint256",
          "name": "",
          "type": "uint256"
        }
      ],
      "stateMutability": "payable",
      "type": "function"
    },
    {
      "inputs": [],
      "name": "name",
      "outputs": [
        {
          "internalType": "string",
          "name": "",
          "type": "string"
        }
      ],
      "stateMutability": "view",
      "type": "function"
    },
    {
      "inputs": [
        {
          "internalType": "uint256",
          "name": "tokenId",
          "type": "uint256"
        }
      ],
      "name": "ownerOf",
      "outputs": [
        {
          "internalType": "address",
          "name": "",
          "type": "address"
        }
      ],
      "stateMutability": "view",
      "type": "function"
    },
    {
      "inputs": [
        {
          "internalType": "address",
          "name": "from",
          "type": "address"
        },
        {
          "internalType": "address",
          "name": "to",
          "type": "address"
        },
        {
          "internalType": "uint256",
          "name": "tokenId",
          "type": "uint256"
        }
      ],
      "name": "safeTransferFrom",
      "outputs": [],
      "stateMutability": "nonpayable",
      "type": "function"
    },
    {
      "inputs": [
        {
          "internalType": "address",
          "name": "from",
          "type": "address"
        },
        {
          "internalType": "address",
          "name": "to",
          "type": "address"
        },
        {
          "internalType": "uint256",
          "name": "tokenId",
          "type": "uint256"
        },
        {
          "internalType": "bytes",
          "name": "_data",
          "type": "bytes"
        }
      ],
      "name": "safeTransferFrom",
      "outputs": [],
      "stateMutability": "nonpayable",
      "type": "function"
    },
    {
      "inputs": [
        {
          "internalType": "address",
          "name": "operator",
          "type": "address"
        },
        {
          "internalType": "bool",
          "name": "approved",
          "type": "bool"
        }
      ],
      "name": "setApprovalForAll",
      "outputs": [],
      "stateMutability": "nonpayable",
      "type": "function"
    },
    {
      "inputs": [
        {
          "internalType": "bytes4",
          "name": "interfaceId",
          "type": "bytes4"
        }
      ],
      "name": "supportsInterface",
      "outputs": [
        {
          "internalType": "bool",
          "name": "",
          "type": "bool"
        }
      ],
      "stateMutability": "view",
      "type": "function"
    },
    {
      "inputs": [],
      "name": "symbol",
      "outputs": [
        {
          "internalType": "string",
          "name": "",
          "type": "string"
        }
      ],
      "stateMutability": "view",
      "type": "function"
    },
    {
      "inputs": [
        {
          "internalType": "uint256",
          "name": "tokenId",
          "type": "uint256"
        }
      ],
      "name": "tokenURI",
      "outputs": [
        {
          "internalType": "string",
          "name": "",
          "type": "string"
        }
      ],
      "stateMutability": "view",
      "type": "function"
    },
    {
      "inputs": [
        {
          "internalType": "address",
          "name": "from",
          "type": "address"
        },
        {
          "internalType": "address",
          "name": "to",
          "type": "address"
        },
        {
          "internalType": "uint256",
          "name": "tokenId",
          "type": "uint256"
        }
      ],
      "name": "transferFrom",
      "outputs": [],
      "stateMutability": "nonpayable",
      "type": "function"
    }
  ],
  "bytecode": "0x60806040523480156200001157600080fd5b506040518060400160405280601481526020017f556c74637562654e4654436f6c6c656374696f6e0000000000000000000000008152506040518060400160405280600481526020017f554c544300000000000000000000000000000000000000000000000000000000815250816000908051906020019062000096929190620000b8565b508060019080519060200190620000af929190620000b8565b505050620001cd565b828054620000c69062000168565b90600052602060002090601f016020900481019282620000ea576000855562000136565b82601f106200010557805160ff191683800117855562000136565b8280016001018555821562000136579182015b828111156200013557825182559160200191906001019062000118565b5b50905062000145919062000149565b5090565b5b80821115620001645760008160009055506001016200014a565b5090565b600060028204905060018216806200018157607f821691505b602082108114156200019857620001976200019e565b5b50919050565b7f4e487b7100000000000000000000000000000000000000000000000000000000600052602260045260246000fd5b612d4880620001dd6000396000f3fe6080604052600436106100e85760003560e01c806370a082311161008a578063bdb2bff911610059578063bdb2bff914610304578063c87b56dd14610334578063e985e9c514610371578063eacabe14146103ae576100e8565b806370a082311461024a57806395d89b4114610287578063a22cb465146102b2578063b88d4fde146102db576100e8565b8063095ea7b3116100c6578063095ea7b31461019257806323b872dd146101bb57806342842e0e146101e45780636352211e1461020d576100e8565b806301ffc9a7146100ed57806306fdde031461012a578063081812fc14610155575b600080fd5b3480156100f957600080fd5b50610114600480360381019061010f9190611df5565b6103eb565b60405161012191906121fb565b60405180910390f35b34801561013657600080fd5b5061013f6104cd565b60405161014c9190612216565b60405180910390f35b34801561016157600080fd5b5061017c60048036038101906101779190611e47565b61055f565b6040516101899190612194565b60405180910390f35b34801561019e57600080fd5b506101b960048036038101906101b49190611db9565b6105e4565b005b3480156101c757600080fd5b506101e260048036038101906101dd9190611bf8565b6106fc565b005b3480156101f057600080fd5b5061020b60048036038101906102069190611bf8565b61075c565b005b34801561021957600080fd5b50610234600480360381019061022f9190611e47565b61077c565b6040516102419190612194565b60405180910390f35b34801561025657600080fd5b50610271600480360381019061026c9190611b93565b61082e565b60405161027e9190612438565b60405180910390f35b34801561029357600080fd5b5061029c6108e6565b6040516102a99190612216565b60405180910390f35b3480156102be57600080fd5b506102d960048036038101906102d49190611cc2565b610978565b005b3480156102e757600080fd5b5061030260048036038101906102fd9190611c47565b610af9565b005b61031e60048036038101906103199190611d52565b610b5b565b60405161032b9190612438565b60405180910390f35b34801561034057600080fd5b5061035b60048036038101906103569190611e47565b610bec565b6040516103689190612216565b60405180910390f35b34801561037d57600080fd5b5061039860048036038101906103939190611bbc565b610d3e565b6040516103a591906121fb565b60405180910390f35b3480156103ba57600080fd5b506103d560048036038101906103d09190611cfe565b610dd2565b6040516103e29190612438565b60405180910390f35b60007f80ac58cd000000000000000000000000000000000000000000000000000000007bffffffffffffffffffffffffffffffffffffffffffffffffffffffff1916827bffffffffffffffffffffffffffffffffffffffffffffffffffffffff191614806104b657507f5b5e139f000000000000000000000000000000000000000000000000000000007bffffffffffffffffffffffffffffffffffffffffffffffffffffffff1916827bffffffffffffffffffffffffffffffffffffffffffffffffffffffff1916145b806104c657506104c582610e0a565b5b9050919050565b6060600080546104dc9061268e565b80601f01602080910402602001604051908101604052809291908181526020018280546105089061268e565b80156105555780601f1061052a57610100808354040283529160200191610555565b820191906000526020600020905b81548152906001019060200180831161053857829003601f168201915b5050505050905090565b600061056a82610e74565b6105a9576040517f08c379a00000000000000000000000000000000000000000000000000000000081526004016105a090612398565b60405180910390fd5b6004600083815260200190815260200160002060009054906101000a900473ffffffffffffffffffffffffffffffffffffffff169050919050565b60006105ef8261077c565b90508073ffffffffffffffffffffffffffffffffffffffff168373ffffffffffffffffffffffffffffffffffffffff161415610660576040517f08c379a0000000000000000000000000000000000000000000000000000000008152600401610657906123f8565b60405180910390fd5b8073ffffffffffffffffffffffffffffffffffffffff1661067f610ee0565b73ffffffffffffffffffffffffffffffffffffffff1614806106ae57506106ad816106a8610ee0565b610d3e565b5b6106ed576040517f08c379a00000000000000000000000000000000000000000000000000000000081526004016106e4906122d8565b60405180910390fd5b6106f78383610ee8565b505050565b61070d610707610ee0565b82610fa1565b61074c576040517f08c379a000000000000000000000000000000000000000000000000000000000815260040161074390612418565b60405180910390fd5b61075783838361107f565b505050565b61077783838360405180602001604052806000815250610af9565b505050565b6000806002600084815260200190815260200160002060009054906101000a900473ffffffffffffffffffffffffffffffffffffffff169050600073ffffffffffffffffffffffffffffffffffffffff168173ffffffffffffffffffffffffffffffffffffffff161415610825576040517f08c379a000000000000000000000000000000000000000000000000000000000815260040161081c90612318565b60405180910390fd5b80915050919050565b60008073ffffffffffffffffffffffffffffffffffffffff168273ffffffffffffffffffffffffffffffffffffffff16141561089f576040517f08c379a0000000000000000000000000000000000000000000000000000000008152600401610896906122f8565b60405180910390fd5b600360008373ffffffffffffffffffffffffffffffffffffffff1673ffffffffffffffffffffffffffffffffffffffff168152602001908152602001600020549050919050565b6060600180546108f59061268e565b80601f01602080910402602001604051908101604052809291908181526020018280546109219061268e565b801561096e5780601f106109435761010080835404028352916020019161096e565b820191906000526020600020905b81548152906001019060200180831161095157829003601f168201915b5050505050905090565b610980610ee0565b73ffffffffffffffffffffffffffffffffffffffff168273ffffffffffffffffffffffffffffffffffffffff1614156109ee576040517f08c379a00000000000000000000000000000000000000000000000000000000081526004016109e590612298565b60405180910390fd5b80600560006109fb610ee0565b73ffffffffffffffffffffffffffffffffffffffff1673ffffffffffffffffffffffffffffffffffffffff16815260200190815260200160002060008473ffffffffffffffffffffffffffffffffffffffff1673ffffffffffffffffffffffffffffffffffffffff16815260200190815260200160002060006101000a81548160ff0219169083151502179055508173ffffffffffffffffffffffffffffffffffffffff16610aa8610ee0565b73ffffffffffffffffffffffffffffffffffffffff167f17307eab39ab6107e8899845ad3d59bd9653f200f220920489ca2b5937696c3183604051610aed91906121fb565b60405180910390a35050565b610b0a610b04610ee0565b83610fa1565b610b49576040517f08c379a0000000000000000000000000000000000000000000000000000000008152600401610b4090612418565b60405180910390fd5b610b55848484846112db565b50505050565b6000610b676007611337565b6000610b73600761134d565b9050610b7f838261135b565b610b898185611529565b610b9483868361107f565b60008390508073ffffffffffffffffffffffffffffffffffffffff166108fc349081150290604051600060405180830381858888f19350505050158015610bdf573d6000803e3d6000fd5b5081925050509392505050565b6060610bf782610e74565b610c36576040517f08c379a0000000000000000000000000000000000000000000000000000000008152600401610c2d90612378565b60405180910390fd5b6000600660008481526020019081526020016000208054610c569061268e565b80601f0160208091040260200160405190810160405280929190818152602001828054610c829061268e565b8015610ccf5780601f10610ca457610100808354040283529160200191610ccf565b820191906000526020600020905b815481529060010190602001808311610cb257829003601f168201915b505050505090506000610ce061159d565b9050600081511415610cf6578192505050610d39565b600082511115610d2b578082604051602001610d13929190612170565b60405160208183030381529060405292505050610d39565b610d34846115b4565b925050505b919050565b6000600560008473ffffffffffffffffffffffffffffffffffffffff1673ffffffffffffffffffffffffffffffffffffffff16815260200190815260200160002060008373ffffffffffffffffffffffffffffffffffffffff1673ffffffffffffffffffffffffffffffffffffffff16815260200190815260200160002060009054906101000a900460ff16905092915050565b6000610dde6007611337565b6000610dea600761134d565b9050610df6848261135b565b610e008184611529565b8091505092915050565b60007f01ffc9a7000000000000000000000000000000000000000000000000000000007bffffffffffffffffffffffffffffffffffffffffffffffffffffffff1916827bffffffffffffffffffffffffffffffffffffffffffffffffffffffff1916149050919050565b60008073ffffffffffffffffffffffffffffffffffffffff166002600084815260200190815260200160002060009054906101000a900473ffffffffffffffffffffffffffffffffffffffff1673ffffffffffffffffffffffffffffffffffffffff1614159050919050565b600033905090565b816004600083815260200190815260200160002060006101000a81548173ffffffffffffffffffffffffffffffffffffffff021916908373ffffffffffffffffffffffffffffffffffffffff160217905550808273ffffffffffffffffffffffffffffffffffffffff16610f5b8361077c565b73ffffffffffffffffffffffffffffffffffffffff167f8c5be1e5ebec7d5bd14f71427d1e84f3dd0314c0f7b2291e5b200ac8c7c3b92560405160405180910390a45050565b6000610fac82610e74565b610feb576040517f08c379a0000000000000000000000000000000000000000000000000000000008152600401610fe2906122b8565b60405180910390fd5b6000610ff68361077c565b90508073ffffffffffffffffffffffffffffffffffffffff168473ffffffffffffffffffffffffffffffffffffffff16148061106557508373ffffffffffffffffffffffffffffffffffffffff1661104d8461055f565b73ffffffffffffffffffffffffffffffffffffffff16145b8061107657506110758185610d3e565b5b91505092915050565b8273ffffffffffffffffffffffffffffffffffffffff1661109f8261077c565b73ffffffffffffffffffffffffffffffffffffffff16146110f5576040517f08c379a00000000000000000000000000000000000000000000000000000000081526004016110ec906123b8565b60405180910390fd5b600073ffffffffffffffffffffffffffffffffffffffff168273ffffffffffffffffffffffffffffffffffffffff161415611165576040517f08c379a000000000000000000000000000000000000000000000000000000000815260040161115c90612278565b60405180910390fd5b61117083838361165b565b61117b600082610ee8565b6001600360008573ffffffffffffffffffffffffffffffffffffffff1673ffffffffffffffffffffffffffffffffffffffff16815260200190815260200160002060008282546111cb91906125a4565b925050819055506001600360008473ffffffffffffffffffffffffffffffffffffffff1673ffffffffffffffffffffffffffffffffffffffff1681526020019081526020016000206000828254611222919061251d565b92505081905550816002600083815260200190815260200160002060006101000a81548173ffffffffffffffffffffffffffffffffffffffff021916908373ffffffffffffffffffffffffffffffffffffffff160217905550808273ffffffffffffffffffffffffffffffffffffffff168473ffffffffffffffffffffffffffffffffffffffff167fddf252ad1be2c89b69c2b068fc378daa952ba7f163c4a11628f55a4df523b3ef60405160405180910390a4505050565b6112e684848461107f565b6112f284848484611660565b611331576040517f08c379a000000000000000000000000000000000000000000000000000000000815260040161132890612238565b60405180910390fd5b50505050565b6001816000016000828254019250508190555050565b600081600001549050919050565b600073ffffffffffffffffffffffffffffffffffffffff168273ffffffffffffffffffffffffffffffffffffffff1614156113cb576040517f08c379a00000000000000000000000000000000000000000000000000000000081526004016113c290612358565b60405180910390fd5b6113d481610e74565b15611414576040517f08c379a000000000000000000000000000000000000000000000000000000000815260040161140b90612258565b60405180910390fd5b6114206000838361165b565b6001600360008473ffffffffffffffffffffffffffffffffffffffff1673ffffffffffffffffffffffffffffffffffffffff1681526020019081526020016000206000828254611470919061251d565b92505081905550816002600083815260200190815260200160002060006101000a81548173ffffffffffffffffffffffffffffffffffffffff021916908373ffffffffffffffffffffffffffffffffffffffff160217905550808273ffffffffffffffffffffffffffffffffffffffff16600073ffffffffffffffffffffffffffffffffffffffff167fddf252ad1be2c89b69c2b068fc378daa952ba7f163c4a11628f55a4df523b3ef60405160405180910390a45050565b61153282610e74565b611571576040517f08c379a000000000000000000000000000000000000000000000000000000000815260040161156890612338565b60405180910390fd5b806006600084815260200190815260200160002090805190602001906115989291906119b7565b505050565b606060405180602001604052806000815250905090565b60606115bf82610e74565b6115fe576040517f08c379a00000000000000000000000000000000000000000000000000000000081526004016115f5906123d8565b60405180910390fd5b600061160861159d565b905060008151116116285760405180602001604052806000815250611653565b80611632846117f7565b604051602001611643929190612170565b6040516020818303038152906040525b915050919050565b505050565b60006116818473ffffffffffffffffffffffffffffffffffffffff166119a4565b156117ea578373ffffffffffffffffffffffffffffffffffffffff1663150b7a026116aa610ee0565b8786866040518563ffffffff1660e01b81526004016116cc94939291906121af565b602060405180830381600087803b1580156116e657600080fd5b505af192505050801561171757506040513d601f19601f820116820180604052508101906117149190611e1e565b60015b61179a573d8060008114611747576040519150601f19603f3d011682016040523d82523d6000602084013e61174c565b606091505b50600081511415611792576040517f08c379a000000000000000000000000000000000000000000000000000000000815260040161178990612238565b60405180910390fd5b805181602001fd5b63150b7a0260e01b7bffffffffffffffffffffffffffffffffffffffffffffffffffffffff1916817bffffffffffffffffffffffffffffffffffffffffffffffffffffffff1916149150506117ef565b600190505b949350505050565b6060600082141561183f576040518060400160405280600181526020017f3000000000000000000000000000000000000000000000000000000000000000815250905061199f565b600082905060005b6000821461187157808061185a906126f1565b915050600a8261186a9190612573565b9150611847565b60008167ffffffffffffffff8111156118b3577f4e487b7100000000000000000000000000000000000000000000000000000000600052604160045260246000fd5b6040519080825280601f01601f1916602001820160405280156118e55781602001600182028036833780820191505090505b5090505b60008514611998576001826118fe91906125a4565b9150600a8561190d919061273a565b6030611919919061251d565b60f81b818381518110611955577f4e487b7100000000000000000000000000000000000000000000000000000000600052603260045260246000fd5b60200101907effffffffffffffffffffffffffffffffffffffffffffffffffffffffffffff1916908160001a905350600a856119919190612573565b94506118e9565b8093505050505b919050565b600080823b905060008111915050919050565b8280546119c39061268e565b90600052602060002090601f0160209004810192826119e55760008555611a2c565b82601f106119fe57805160ff1916838001178555611a2c565b82800160010185558215611a2c579182015b82811115611a2b578251825591602001919060010190611a10565b5b509050611a399190611a3d565b5090565b5b80821115611a56576000816000905550600101611a3e565b5090565b6000611a6d611a6884612478565b612453565b905082815260208101848484011115611a8557600080fd5b611a9084828561264c565b509392505050565b6000611aab611aa6846124a9565b612453565b905082815260208101848484011115611ac357600080fd5b611ace84828561264c565b509392505050565b600081359050611ae581612cb6565b92915050565b600081359050611afa81612ccd565b92915050565b600081359050611b0f81612ce4565b92915050565b600081519050611b2481612ce4565b92915050565b600082601f830112611b3b57600080fd5b8135611b4b848260208601611a5a565b91505092915050565b600082601f830112611b6557600080fd5b8135611b75848260208601611a98565b91505092915050565b600081359050611b8d81612cfb565b92915050565b600060208284031215611ba557600080fd5b6000611bb384828501611ad6565b91505092915050565b60008060408385031215611bcf57600080fd5b6000611bdd85828601611ad6565b9250506020611bee85828601611ad6565b9150509250929050565b600080600060608486031215611c0d57600080fd5b6000611c1b86828701611ad6565b9350506020611c2c86828701611ad6565b9250506040611c3d86828701611b7e565b9150509250925092565b60008060008060808587031215611c5d57600080fd5b6000611c6b87828801611ad6565b9450506020611c7c87828801611ad6565b9350506040611c8d87828801611b7e565b925050606085013567ffffffffffffffff811115611caa57600080fd5b611cb687828801611b2a565b91505092959194509250565b60008060408385031215611cd557600080fd5b6000611ce385828601611ad6565b9250506020611cf485828601611aeb565b9150509250929050565b60008060408385031215611d1157600080fd5b6000611d1f85828601611ad6565b925050602083013567ffffffffffffffff811115611d3c57600080fd5b611d4885828601611b54565b9150509250929050565b600080600060608486031215611d6757600080fd5b6000611d7586828701611ad6565b935050602084013567ffffffffffffffff811115611d9257600080fd5b611d9e86828701611b54565b9250506040611daf86828701611ad6565b9150509250925092565b60008060408385031215611dcc57600080fd5b6000611dda85828601611ad6565b9250506020611deb85828601611b7e565b9150509250929050565b600060208284031215611e0757600080fd5b6000611e1584828501611b00565b91505092915050565b600060208284031215611e3057600080fd5b6000611e3e84828501611b15565b91505092915050565b600060208284031215611e5957600080fd5b6000611e6784828501611b7e565b91505092915050565b611e79816125d8565b82525050565b611e88816125ea565b82525050565b6000611e99826124da565b611ea381856124f0565b9350611eb381856020860161265b565b611ebc81612827565b840191505092915050565b6000611ed2826124e5565b611edc8185612501565b9350611eec81856020860161265b565b611ef581612827565b840191505092915050565b6000611f0b826124e5565b611f158185612512565b9350611f2581856020860161265b565b80840191505092915050565b6000611f3e603283612501565b9150611f4982612838565b604082019050919050565b6000611f61601c83612501565b9150611f6c82612887565b602082019050919050565b6000611f84602483612501565b9150611f8f826128b0565b604082019050919050565b6000611fa7601983612501565b9150611fb2826128ff565b602082019050919050565b6000611fca602c83612501565b9150611fd582612928565b604082019050919050565b6000611fed603883612501565b9150611ff882612977565b604082019050919050565b6000612010602a83612501565b915061201b826129c6565b604082019050919050565b6000612033602983612501565b915061203e82612a15565b604082019050919050565b6000612056602e83612501565b915061206182612a64565b604082019050919050565b6000612079602083612501565b915061208482612ab3565b602082019050919050565b600061209c603183612501565b91506120a782612adc565b604082019050919050565b60006120bf602c83612501565b91506120ca82612b2b565b604082019050919050565b60006120e2602983612501565b91506120ed82612b7a565b604082019050919050565b6000612105602f83612501565b915061211082612bc9565b604082019050919050565b6000612128602183612501565b915061213382612c18565b604082019050919050565b600061214b603183612501565b915061215682612c67565b604082019050919050565b61216a81612642565b82525050565b600061217c8285611f00565b91506121888284611f00565b91508190509392505050565b60006020820190506121a96000830184611e70565b92915050565b60006080820190506121c46000830187611e70565b6121d16020830186611e70565b6121de6040830185612161565b81810360608301526121f08184611e8e565b905095945050505050565b60006020820190506122106000830184611e7f565b92915050565b600060208201905081810360008301526122308184611ec7565b905092915050565b6000602082019050818103600083015261225181611f31565b9050919050565b6000602082019050818103600083015261227181611f54565b9050919050565b6000602082019050818103600083015261229181611f77565b9050919050565b600060208201905081810360008301526122b181611f9a565b9050919050565b600060208201905081810360008301526122d181611fbd565b9050919050565b600060208201905081810360008301526122f181611fe0565b9050919050565b6000602082019050818103600083015261231181612003565b9050919050565b6000602082019050818103600083015261233181612026565b9050919050565b6000602082019050818103600083015261235181612049565b9050919050565b600060208201905081810360008301526123718161206c565b9050919050565b600060208201905081810360008301526123918161208f565b9050919050565b600060208201905081810360008301526123b1816120b2565b9050919050565b600060208201905081810360008301526123d1816120d5565b9050919050565b600060208201905081810360008301526123f1816120f8565b9050919050565b600060208201905081810360008301526124118161211b565b9050919050565b600060208201905081810360008301526124318161213e565b9050919050565b600060208201905061244d6000830184612161565b92915050565b600061245d61246e565b905061246982826126c0565b919050565b6000604051905090565b600067ffffffffffffffff821115612493576124926127f8565b5b61249c82612827565b9050602081019050919050565b600067ffffffffffffffff8211156124c4576124c36127f8565b5b6124cd82612827565b9050602081019050919050565b600081519050919050565b600081519050919050565b600082825260208201905092915050565b600082825260208201905092915050565b600081905092915050565b600061252882612642565b915061253383612642565b9250827fffffffffffffffffffffffffffffffffffffffffffffffffffffffffffffffff038211156125685761256761276b565b5b828201905092915050565b600061257e82612642565b915061258983612642565b9250826125995761259861279a565b5b828204905092915050565b60006125af82612642565b91506125ba83612642565b9250828210156125cd576125cc61276b565b5b828203905092915050565b60006125e382612622565b9050919050565b60008115159050919050565b60007fffffffff0000000000000000000000000000000000000000000000000000000082169050919050565b600073ffffffffffffffffffffffffffffffffffffffff82169050919050565b6000819050919050565b82818337600083830152505050565b60005b8381101561267957808201518184015260208101905061265e565b83811115612688576000848401525b50505050565b600060028204905060018216806126a657607f821691505b602082108114156126ba576126b96127c9565b5b50919050565b6126c982612827565b810181811067ffffffffffffffff821117156126e8576126e76127f8565b5b80604052505050565b60006126fc82612642565b91507fffffffffffffffffffffffffffffffffffffffffffffffffffffffffffffffff82141561272f5761272e61276b565b5b600182019050919050565b600061274582612642565b915061275083612642565b9250826127605761275f61279a565b5b828206905092915050565b7f4e487b7100000000000000000000000000000000000000000000000000000000600052601160045260246000fd5b7f4e487b7100000000000000000000000000000000000000000000000000000000600052601260045260246000fd5b7f4e487b7100000000000000000000000000000000000000000000000000000000600052602260045260246000fd5b7f4e487b7100000000000000000000000000000000000000000000000000000000600052604160045260246000fd5b6000601f19601f8301169050919050565b7f4552433732313a207472616e7366657220746f206e6f6e20455243373231526560008201527f63656976657220696d706c656d656e7465720000000000000000000000000000602082015250565b7f4552433732313a20746f6b656e20616c7265616479206d696e74656400000000600082015250565b7f4552433732313a207472616e7366657220746f20746865207a65726f2061646460008201527f7265737300000000000000000000000000000000000000000000000000000000602082015250565b7f4552433732313a20617070726f766520746f2063616c6c657200000000000000600082015250565b7f4552433732313a206f70657261746f7220717565727920666f72206e6f6e657860008201527f697374656e7420746f6b656e0000000000000000000000000000000000000000602082015250565b7f4552433732313a20617070726f76652063616c6c6572206973206e6f74206f7760008201527f6e6572206e6f7220617070726f76656420666f7220616c6c0000000000000000602082015250565b7f4552433732313a2062616c616e636520717565727920666f7220746865207a6560008201527f726f206164647265737300000000000000000000000000000000000000000000602082015250565b7f4552433732313a206f776e657220717565727920666f72206e6f6e657869737460008201527f656e7420746f6b656e0000000000000000000000000000000000000000000000602082015250565b7f45524337323155524953746f726167653a2055524920736574206f66206e6f6e60008201527f6578697374656e7420746f6b656e000000000000000000000000000000000000602082015250565b7f4552433732313a206d696e7420746f20746865207a65726f2061646472657373600082015250565b7f45524337323155524953746f726167653a2055524920717565727920666f722060008201527f6e6f6e6578697374656e7420746f6b656e000000000000000000000000000000602082015250565b7f4552433732313a20617070726f76656420717565727920666f72206e6f6e657860008201527f697374656e7420746f6b656e0000000000000000000000000000000000000000602082015250565b7f4552433732313a207472616e73666572206f6620746f6b656e2074686174206960008201527f73206e6f74206f776e0000000000000000000000000000000000000000000000602082015250565b7f4552433732314d657461646174613a2055524920717565727920666f72206e6f60008201527f6e6578697374656e7420746f6b656e0000000000000000000000000000000000602082015250565b7f4552433732313a20617070726f76616c20746f2063757272656e74206f776e6560008201527f7200000000000000000000000000000000000000000000000000000000000000602082015250565b7f4552433732313a207472616e736665722063616c6c6572206973206e6f74206f60008201527f776e6572206e6f7220617070726f766564000000000000000000000000000000602082015250565b612cbf816125d8565b8114612cca57600080fd5b50565b612cd6816125ea565b8114612ce157600080fd5b50565b612ced816125f6565b8114612cf857600080fd5b50565b612d0481612642565b8114612d0f57600080fd5b5056fea26469706673582212200b35242e45f9d2466804c461f2b1debc1183b2b2d68cf8fd3e33efdfef46334664736f6c63430008040033",
  "linkReferences": {},
  "deployedLinkReferences": {}
}