{
  "_format": "hh-sol-artifact-1",
  "contractName": "ULTC1155",
  "sourceName": "contracts/ULTC1155.sol",
  "abi": [
    {
      "inputs": [],
      "stateMutability": "nonpayable",
      "type": "constructor"
    },
    {
      "anonymous": false,
      "inputs": [
        {
          "indexed": true,
          "internalType": "address",
          "name": "account",
          "type": "address"
        },
        {
          "indexed": true,
          "internalType": "address",
          "name": "operator",
          "type": "address"
        },
        {
          "indexed": false,
          "internalType": "bool",
          "name": "approved",
          "type": "bool"
        }
      ],
      "name": "ApprovalForAll",
      "type": "event"
    },
    {
      "anonymous": false,
      "inputs": [
        {
          "indexed": true,
          "internalType": "address",
          "name": "operator",
          "type": "address"
        },
        {
          "indexed": true,
          "internalType": "address",
          "name": "from",
          "type": "address"
        },
        {
          "indexed": true,
          "internalType": "address",
          "name": "to",
          "type": "address"
        },
        {
          "indexed": false,
          "internalType": "uint256[]",
          "name": "ids",
          "type": "uint256[]"
        },
        {
          "indexed": false,
          "internalType": "uint256[]",
          "name": "values",
          "type": "uint256[]"
        }
      ],
      "name": "TransferBatch",
      "type": "event"
    },
    {
      "anonymous": false,
      "inputs": [
        {
          "indexed": true,
          "internalType": "address",
          "name": "operator",
          "type": "address"
        },
        {
          "indexed": true,
          "internalType": "address",
          "name": "from",
          "type": "address"
        },
        {
          "indexed": true,
          "internalType": "address",
          "name": "to",
          "type": "address"
        },
        {
          "indexed": false,
          "internalType": "uint256",
          "name": "id",
          "type": "uint256"
        },
        {
          "indexed": false,
          "internalType": "uint256",
          "name": "value",
          "type": "uint256"
        }
      ],
      "name": "TransferSingle",
      "type": "event"
    },
    {
      "anonymous": false,
      "inputs": [
        {
          "indexed": false,
          "internalType": "string",
          "name": "value",
          "type": "string"
        },
        {
          "indexed": true,
          "internalType": "uint256",
          "name": "id",
          "type": "uint256"
        }
      ],
      "name": "URI",
      "type": "event"
    },
    {
      "inputs": [
        {
          "internalType": "uint256",
          "name": "amount",
          "type": "uint256"
        }
      ],
      "name": "bakePizza",
      "outputs": [],
      "stateMutability": "nonpayable",
      "type": "function"
    },
    {
      "inputs": [
        {
          "internalType": "address",
          "name": "account",
          "type": "address"
        },
        {
          "internalType": "uint256",
          "name": "id",
          "type": "uint256"
        }
      ],
      "name": "balanceOf",
      "outputs": [
        {
          "internalType": "uint256",
          "name": "",
          "type": "uint256"
        }
      ],
      "stateMutability": "view",
      "type": "function"
    },
    {
      "inputs": [
        {
          "internalType": "address[]",
          "name": "accounts",
          "type": "address[]"
        },
        {
          "internalType": "uint256[]",
          "name": "ids",
          "type": "uint256[]"
        }
      ],
      "name": "balanceOfBatch",
      "outputs": [
        {
          "internalType": "uint256[]",
          "name": "",
          "type": "uint256[]"
        }
      ],
      "stateMutability": "view",
      "type": "function"
    },
    {
      "inputs": [
        {
          "internalType": "address",
          "name": "account",
          "type": "address"
        },
        {
          "internalType": "address",
          "name": "operator",
          "type": "address"
        }
      ],
      "name": "isApprovedForAll",
      "outputs": [
        {
          "internalType": "bool",
          "name": "",
          "type": "bool"
        }
      ],
      "stateMutability": "view",
      "type": "function"
    },
    {
      "inputs": [],
      "name": "name",
      "outputs": [
        {
          "internalType": "string",
          "name": "",
          "type": "string"
        }
      ],
      "stateMutability": "view",
      "type": "function"
    },
    {
      "inputs": [
        {
          "internalType": "address",
          "name": "from",
          "type": "address"
        },
        {
          "internalType": "address",
          "name": "to",
          "type": "address"
        },
        {
          "internalType": "uint256[]",
          "name": "ids",
          "type": "uint256[]"
        },
        {
          "internalType": "uint256[]",
          "name": "amounts",
          "type": "uint256[]"
        },
        {
          "internalType": "bytes",
          "name": "data",
          "type": "bytes"
        }
      ],
      "name": "safeBatchTransferFrom",
      "outputs": [],
      "stateMutability": "nonpayable",
      "type": "function"
    },
    {
      "inputs": [
        {
          "internalType": "address",
          "name": "from",
          "type": "address"
        },
        {
          "internalType": "address",
          "name": "to",
          "type": "address"
        },
        {
          "internalType": "uint256",
          "name": "id",
          "type": "uint256"
        },
        {
          "internalType": "uint256",
          "name": "amount",
          "type": "uint256"
        },
        {
          "internalType": "bytes",
          "name": "data",
          "type": "bytes"
        }
      ],
      "name": "safeTransferFrom",
      "outputs": [],
      "stateMutability": "nonpayable",
      "type": "function"
    },
    {
      "inputs": [
        {
          "internalType": "address",
          "name": "operator",
          "type": "address"
        },
        {
          "internalType": "bool",
          "name": "approved",
          "type": "bool"
        }
      ],
      "name": "setApprovalForAll",
      "outputs": [],
      "stateMutability": "nonpayable",
      "type": "function"
    },
    {
      "inputs": [
        {
          "internalType": "bytes4",
          "name": "interfaceId",
          "type": "bytes4"
        }
      ],
      "name": "supportsInterface",
      "outputs": [
        {
          "internalType": "bool",
          "name": "",
          "type": "bool"
        }
      ],
      "stateMutability": "view",
      "type": "function"
    },
    {
      "inputs": [],
      "name": "symbol",
      "outputs": [
        {
          "internalType": "string",
          "name": "",
          "type": "string"
        }
      ],
      "stateMutability": "view",
      "type": "function"
    },
    {
      "inputs": [],
      "name": "tokenCount",
      "outputs": [
        {
          "internalType": "uint256",
          "name": "",
          "type": "uint256"
        }
      ],
      "stateMutability": "view",
      "type": "function"
    },
    {
      "inputs": [
        {
          "internalType": "uint256",
          "name": "",
          "type": "uint256"
        }
      ],
      "name": "uri",
      "outputs": [
        {
          "internalType": "string",
          "name": "",
          "type": "string"
        }
      ],
      "stateMutability": "view",
      "type": "function"
    }
  ],
  "bytecode": "0x60806040526040518060400160405280601981526020017f556c74637562654e46544d756c7469436f6c6c656374696f6e00000000000000815250600390805190602001906200005192919062000104565b506040518060400160405280600581526020017f554c54434d000000000000000000000000000000000000000000000000000000815250600490805190602001906200009f92919062000104565b50348015620000ad57600080fd5b5060405180606001604052806027815260200162002bf960279139620000d981620000e860201b60201c565b50600060058190555062000219565b80600290805190602001906200010092919062000104565b5050565b8280546200011290620001b4565b90600052602060002090601f01602090048101928262000136576000855562000182565b82601f106200015157805160ff191683800117855562000182565b8280016001018555821562000182579182015b828111156200018157825182559160200191906001019062000164565b5b50905062000191919062000195565b5090565b5b80821115620001b057600081600090555060010162000196565b5090565b60006002820490506001821680620001cd57607f821691505b60208210811415620001e457620001e3620001ea565b5b50919050565b7f4e487b7100000000000000000000000000000000000000000000000000000000600052602260045260246000fd5b6129d080620002296000396000f3fe608060405234801561001057600080fd5b50600436106100b35760003560e01c806395d89b411161007157806395d89b41146101b25780639f181b5e146101d0578063a22cb465146101ee578063cac820051461020a578063e985e9c514610226578063f242432a14610256576100b3565b8062fdd58e146100b857806301ffc9a7146100e857806306fdde03146101185780630e89341c146101365780632eb2c2d6146101665780634e1273f414610182575b600080fd5b6100d260048036038101906100cd9190611a77565b610272565b6040516100df9190612113565b60405180910390f35b61010260048036038101906100fd9190611b2f565b61033b565b60405161010f9190611f76565b60405180910390f35b61012061041d565b60405161012d9190611f91565b60405180910390f35b610150600480360381019061014b9190611b89565b6104ab565b60405161015d9190611f91565b60405180910390f35b610180600480360381019061017b91906118d1565b61053f565b005b61019c60048036038101906101979190611ab7565b6105e0565b6040516101a99190611f1d565b60405180910390f35b6101ba6106f9565b6040516101c79190611f91565b60405180910390f35b6101d8610787565b6040516101e59190612113565b60405180910390f35b61020860048036038101906102039190611a37565b61078d565b005b610224600480360381019061021f9190611b89565b61090e565b005b610240600480360381019061023b9190611891565b610946565b60405161024d9190611f76565b60405180910390f35b610270600480360381019061026b91906119a0565b6109da565b005b60008073ffffffffffffffffffffffffffffffffffffffff168373ffffffffffffffffffffffffffffffffffffffff1614156102e3576040517f08c379a00000000000000000000000000000000000000000000000000000000081526004016102da90611ff3565b60405180910390fd5b60008083815260200190815260200160002060008473ffffffffffffffffffffffffffffffffffffffff1673ffffffffffffffffffffffffffffffffffffffff16815260200190815260200160002054905092915050565b60007fd9b67a26000000000000000000000000000000000000000000000000000000007bffffffffffffffffffffffffffffffffffffffffffffffffffffffff1916827bffffffffffffffffffffffffffffffffffffffffffffffffffffffff1916148061040657507f0e89341c000000000000000000000000000000000000000000000000000000007bffffffffffffffffffffffffffffffffffffffffffffffffffffffff1916827bffffffffffffffffffffffffffffffffffffffffffffffffffffffff1916145b80610416575061041582610a7b565b5b9050919050565b6003805461042a90612382565b80601f016020809104026020016040519081016040528092919081815260200182805461045690612382565b80156104a35780601f10610478576101008083540402835291602001916104a3565b820191906000526020600020905b81548152906001019060200180831161048657829003601f168201915b505050505081565b6060600280546104ba90612382565b80601f01602080910402602001604051908101604052809291908181526020018280546104e690612382565b80156105335780601f1061050857610100808354040283529160200191610533565b820191906000526020600020905b81548152906001019060200180831161051657829003601f168201915b50505050509050919050565b610547610ae5565b73ffffffffffffffffffffffffffffffffffffffff168573ffffffffffffffffffffffffffffffffffffffff16148061058d575061058c85610587610ae5565b610946565b5b6105cc576040517f08c379a00000000000000000000000000000000000000000000000000000000081526004016105c390612053565b60405180910390fd5b6105d98585858585610aed565b5050505050565b60608151835114610626576040517f08c379a000000000000000000000000000000000000000000000000000000000815260040161061d906120b3565b60405180910390fd5b6000835167ffffffffffffffff811115610643576106426124bb565b5b6040519080825280602002602001820160405280156106715781602001602082028036833780820191505090505b50905060005b84518110156106ee576106be8582815181106106965761069561248c565b5b60200260200101518583815181106106b1576106b061248c565b5b6020026020010151610272565b8282815181106106d1576106d061248c565b5b602002602001018181525050806106e7906123e5565b9050610677565b508091505092915050565b6004805461070690612382565b80601f016020809104026020016040519081016040528092919081815260200182805461073290612382565b801561077f5780601f106107545761010080835404028352916020019161077f565b820191906000526020600020905b81548152906001019060200180831161076257829003601f168201915b505050505081565b60055481565b8173ffffffffffffffffffffffffffffffffffffffff166107ac610ae5565b73ffffffffffffffffffffffffffffffffffffffff161415610803576040517f08c379a00000000000000000000000000000000000000000000000000000000081526004016107fa90612093565b60405180910390fd5b8060016000610810610ae5565b73ffffffffffffffffffffffffffffffffffffffff1673ffffffffffffffffffffffffffffffffffffffff16815260200190815260200160002060008473ffffffffffffffffffffffffffffffffffffffff1673ffffffffffffffffffffffffffffffffffffffff16815260200190815260200160002060006101000a81548160ff0219169083151502179055508173ffffffffffffffffffffffffffffffffffffffff166108bd610ae5565b73ffffffffffffffffffffffffffffffffffffffff167f17307eab39ab6107e8899845ad3d59bd9653f200f220920489ca2b5937696c31836040516109029190611f76565b60405180910390a35050565b60056000815480929190610921906123e5565b9190505550610943336005548360405180602001604052806000815250610e01565b50565b6000600160008473ffffffffffffffffffffffffffffffffffffffff1673ffffffffffffffffffffffffffffffffffffffff16815260200190815260200160002060008373ffffffffffffffffffffffffffffffffffffffff1673ffffffffffffffffffffffffffffffffffffffff16815260200190815260200160002060009054906101000a900460ff16905092915050565b6109e2610ae5565b73ffffffffffffffffffffffffffffffffffffffff168573ffffffffffffffffffffffffffffffffffffffff161480610a285750610a2785610a22610ae5565b610946565b5b610a67576040517f08c379a0000000000000000000000000000000000000000000000000000000008152600401610a5e90612013565b60405180910390fd5b610a748585858585610f97565b5050505050565b60007f01ffc9a7000000000000000000000000000000000000000000000000000000007bffffffffffffffffffffffffffffffffffffffffffffffffffffffff1916827bffffffffffffffffffffffffffffffffffffffffffffffffffffffff1916149050919050565b600033905090565b8151835114610b31576040517f08c379a0000000000000000000000000000000000000000000000000000000008152600401610b28906120d3565b60405180910390fd5b600073ffffffffffffffffffffffffffffffffffffffff168473ffffffffffffffffffffffffffffffffffffffff161415610ba1576040517f08c379a0000000000000000000000000000000000000000000000000000000008152600401610b9890612033565b60405180910390fd5b6000610bab610ae5565b9050610bbb818787878787611219565b60005b8451811015610d6c576000858281518110610bdc57610bdb61248c565b5b602002602001015190506000858381518110610bfb57610bfa61248c565b5b60200260200101519050600080600084815260200190815260200160002060008b73ffffffffffffffffffffffffffffffffffffffff1673ffffffffffffffffffffffffffffffffffffffff16815260200190815260200160002054905081811015610c9c576040517f08c379a0000000000000000000000000000000000000000000000000000000008152600401610c9390612073565b60405180910390fd5b81810360008085815260200190815260200160002060008c73ffffffffffffffffffffffffffffffffffffffff1673ffffffffffffffffffffffffffffffffffffffff168152602001908152602001600020819055508160008085815260200190815260200160002060008b73ffffffffffffffffffffffffffffffffffffffff1673ffffffffffffffffffffffffffffffffffffffff1681526020019081526020016000206000828254610d519190612276565b9250508190555050505080610d65906123e5565b9050610bbe565b508473ffffffffffffffffffffffffffffffffffffffff168673ffffffffffffffffffffffffffffffffffffffff168273ffffffffffffffffffffffffffffffffffffffff167f4a39dc06d4c0dbc64b70af90fd698a233a518aa5d07e595d983b8c0526c8f7fb8787604051610de3929190611f3f565b60405180910390a4610df9818787878787611221565b505050505050565b600073ffffffffffffffffffffffffffffffffffffffff168473ffffffffffffffffffffffffffffffffffffffff161415610e71576040517f08c379a0000000000000000000000000000000000000000000000000000000008152600401610e68906120f3565b60405180910390fd5b6000610e7b610ae5565b9050610e9c81600087610e8d88611408565b610e9688611408565b87611219565b8260008086815260200190815260200160002060008773ffffffffffffffffffffffffffffffffffffffff1673ffffffffffffffffffffffffffffffffffffffff1681526020019081526020016000206000828254610efb9190612276565b925050819055508473ffffffffffffffffffffffffffffffffffffffff16600073ffffffffffffffffffffffffffffffffffffffff168273ffffffffffffffffffffffffffffffffffffffff167fc3d58168c5ae7397731d063d5bbf3d657854427343f4c083240f7aacaa2d0f628787604051610f7992919061212e565b60405180910390a4610f9081600087878787611482565b5050505050565b600073ffffffffffffffffffffffffffffffffffffffff168473ffffffffffffffffffffffffffffffffffffffff161415611007576040517f08c379a0000000000000000000000000000000000000000000000000000000008152600401610ffe90612033565b60405180910390fd5b6000611011610ae5565b905061103181878761102288611408565b61102b88611408565b87611219565b600080600086815260200190815260200160002060008873ffffffffffffffffffffffffffffffffffffffff1673ffffffffffffffffffffffffffffffffffffffff168152602001908152602001600020549050838110156110c8576040517f08c379a00000000000000000000000000000000000000000000000000000000081526004016110bf90612073565b60405180910390fd5b83810360008087815260200190815260200160002060008973ffffffffffffffffffffffffffffffffffffffff1673ffffffffffffffffffffffffffffffffffffffff168152602001908152602001600020819055508360008087815260200190815260200160002060008873ffffffffffffffffffffffffffffffffffffffff1673ffffffffffffffffffffffffffffffffffffffff168152602001908152602001600020600082825461117d9190612276565b925050819055508573ffffffffffffffffffffffffffffffffffffffff168773ffffffffffffffffffffffffffffffffffffffff168373ffffffffffffffffffffffffffffffffffffffff167fc3d58168c5ae7397731d063d5bbf3d657854427343f4c083240f7aacaa2d0f6288886040516111fa92919061212e565b60405180910390a4611210828888888888611482565b50505050505050565b505050505050565b6112408473ffffffffffffffffffffffffffffffffffffffff16611669565b15611400578373ffffffffffffffffffffffffffffffffffffffff1663bc197c8187878686866040518663ffffffff1660e01b8152600401611286959493929190611e5b565b602060405180830381600087803b1580156112a057600080fd5b505af19250505080156112d157506040513d601f19601f820116820180604052508101906112ce9190611b5c565b60015b611377576112dd6124ea565b806308c379a0141561133a57506112f26128a8565b806112fd575061133c565b806040517f08c379a00000000000000000000000000000000000000000000000000000000081526004016113319190611f91565b60405180910390fd5b505b6040517f08c379a000000000000000000000000000000000000000000000000000000000815260040161136e90611fb3565b60405180910390fd5b63bc197c8160e01b7bffffffffffffffffffffffffffffffffffffffffffffffffffffffff1916817bffffffffffffffffffffffffffffffffffffffffffffffffffffffff1916146113fe576040517f08c379a00000000000000000000000000000000000000000000000000000000081526004016113f590611fd3565b60405180910390fd5b505b505050505050565b60606000600167ffffffffffffffff811115611427576114266124bb565b5b6040519080825280602002602001820160405280156114555781602001602082028036833780820191505090505b509050828160008151811061146d5761146c61248c565b5b60200260200101818152505080915050919050565b6114a18473ffffffffffffffffffffffffffffffffffffffff16611669565b15611661578373ffffffffffffffffffffffffffffffffffffffff1663f23a6e6187878686866040518663ffffffff1660e01b81526004016114e7959493929190611ec3565b602060405180830381600087803b15801561150157600080fd5b505af192505050801561153257506040513d601f19601f8201168201806040525081019061152f9190611b5c565b60015b6115d85761153e6124ea565b806308c379a0141561159b57506115536128a8565b8061155e575061159d565b806040517f08c379a00000000000000000000000000000000000000000000000000000000081526004016115929190611f91565b60405180910390fd5b505b6040517f08c379a00000000000000000000000000000000000000000000000000000000081526004016115cf90611fb3565b60405180910390fd5b63f23a6e6160e01b7bffffffffffffffffffffffffffffffffffffffffffffffffffffffff1916817bffffffffffffffffffffffffffffffffffffffffffffffffffffffff19161461165f576040517f08c379a000000000000000000000000000000000000000000000000000000000815260040161165690611fd3565b60405180910390fd5b505b505050505050565b600080823b905060008111915050919050565b600061168f61168a8461217c565b612157565b905080838252602082019050828560208602820111156116b2576116b1612511565b5b60005b858110156116e257816116c8888261179e565b8452602084019350602083019250506001810190506116b5565b5050509392505050565b60006116ff6116fa846121a8565b612157565b9050808382526020820190508285602086028201111561172257611721612511565b5b60005b858110156117525781611738888261187c565b845260208401935060208301925050600181019050611725565b5050509392505050565b600061176f61176a846121d4565b612157565b90508281526020810184848401111561178b5761178a612516565b5b611796848285612340565b509392505050565b6000813590506117ad8161293e565b92915050565b600082601f8301126117c8576117c761250c565b5b81356117d884826020860161167c565b91505092915050565b600082601f8301126117f6576117f561250c565b5b81356118068482602086016116ec565b91505092915050565b60008135905061181e81612955565b92915050565b6000813590506118338161296c565b92915050565b6000815190506118488161296c565b92915050565b600082601f8301126118635761186261250c565b5b813561187384826020860161175c565b91505092915050565b60008135905061188b81612983565b92915050565b600080604083850312156118a8576118a7612520565b5b60006118b68582860161179e565b92505060206118c78582860161179e565b9150509250929050565b600080600080600060a086880312156118ed576118ec612520565b5b60006118fb8882890161179e565b955050602061190c8882890161179e565b945050604086013567ffffffffffffffff81111561192d5761192c61251b565b5b611939888289016117e1565b935050606086013567ffffffffffffffff81111561195a5761195961251b565b5b611966888289016117e1565b925050608086013567ffffffffffffffff8111156119875761198661251b565b5b6119938882890161184e565b9150509295509295909350565b600080600080600060a086880312156119bc576119bb612520565b5b60006119ca8882890161179e565b95505060206119db8882890161179e565b94505060406119ec8882890161187c565b93505060606119fd8882890161187c565b925050608086013567ffffffffffffffff811115611a1e57611a1d61251b565b5b611a2a8882890161184e565b9150509295509295909350565b60008060408385031215611a4e57611a4d612520565b5b6000611a5c8582860161179e565b9250506020611a6d8582860161180f565b9150509250929050565b60008060408385031215611a8e57611a8d612520565b5b6000611a9c8582860161179e565b9250506020611aad8582860161187c565b9150509250929050565b60008060408385031215611ace57611acd612520565b5b600083013567ffffffffffffffff811115611aec57611aeb61251b565b5b611af8858286016117b3565b925050602083013567ffffffffffffffff811115611b1957611b1861251b565b5b611b25858286016117e1565b9150509250929050565b600060208284031215611b4557611b44612520565b5b6000611b5384828501611824565b91505092915050565b600060208284031215611b7257611b71612520565b5b6000611b8084828501611839565b91505092915050565b600060208284031215611b9f57611b9e612520565b5b6000611bad8482850161187c565b91505092915050565b6000611bc28383611e3d565b60208301905092915050565b611bd7816122cc565b82525050565b6000611be882612215565b611bf28185612243565b9350611bfd83612205565b8060005b83811015611c2e578151611c158882611bb6565b9750611c2083612236565b925050600181019050611c01565b5085935050505092915050565b611c44816122de565b82525050565b6000611c5582612220565b611c5f8185612254565b9350611c6f81856020860161234f565b611c7881612525565b840191505092915050565b6000611c8e8261222b565b611c988185612265565b9350611ca881856020860161234f565b611cb181612525565b840191505092915050565b6000611cc9603483612265565b9150611cd482612543565b604082019050919050565b6000611cec602883612265565b9150611cf782612592565b604082019050919050565b6000611d0f602b83612265565b9150611d1a826125e1565b604082019050919050565b6000611d32602983612265565b9150611d3d82612630565b604082019050919050565b6000611d55602583612265565b9150611d608261267f565b604082019050919050565b6000611d78603283612265565b9150611d83826126ce565b604082019050919050565b6000611d9b602a83612265565b9150611da68261271d565b604082019050919050565b6000611dbe602983612265565b9150611dc98261276c565b604082019050919050565b6000611de1602983612265565b9150611dec826127bb565b604082019050919050565b6000611e04602883612265565b9150611e0f8261280a565b604082019050919050565b6000611e27602183612265565b9150611e3282612859565b604082019050919050565b611e4681612336565b82525050565b611e5581612336565b82525050565b600060a082019050611e706000830188611bce565b611e7d6020830187611bce565b8181036040830152611e8f8186611bdd565b90508181036060830152611ea38185611bdd565b90508181036080830152611eb78184611c4a565b90509695505050505050565b600060a082019050611ed86000830188611bce565b611ee56020830187611bce565b611ef26040830186611e4c565b611eff6060830185611e4c565b8181036080830152611f118184611c4a565b90509695505050505050565b60006020820190508181036000830152611f378184611bdd565b905092915050565b60006040820190508181036000830152611f598185611bdd565b90508181036020830152611f6d8184611bdd565b90509392505050565b6000602082019050611f8b6000830184611c3b565b92915050565b60006020820190508181036000830152611fab8184611c83565b905092915050565b60006020820190508181036000830152611fcc81611cbc565b9050919050565b60006020820190508181036000830152611fec81611cdf565b9050919050565b6000602082019050818103600083015261200c81611d02565b9050919050565b6000602082019050818103600083015261202c81611d25565b9050919050565b6000602082019050818103600083015261204c81611d48565b9050919050565b6000602082019050818103600083015261206c81611d6b565b9050919050565b6000602082019050818103600083015261208c81611d8e565b9050919050565b600060208201905081810360008301526120ac81611db1565b9050919050565b600060208201905081810360008301526120cc81611dd4565b9050919050565b600060208201905081810360008301526120ec81611df7565b9050919050565b6000602082019050818103600083015261210c81611e1a565b9050919050565b60006020820190506121286000830184611e4c565b92915050565b60006040820190506121436000830185611e4c565b6121506020830184611e4c565b9392505050565b6000612161612172565b905061216d82826123b4565b919050565b6000604051905090565b600067ffffffffffffffff821115612197576121966124bb565b5b602082029050602081019050919050565b600067ffffffffffffffff8211156121c3576121c26124bb565b5b602082029050602081019050919050565b600067ffffffffffffffff8211156121ef576121ee6124bb565b5b6121f882612525565b9050602081019050919050565b6000819050602082019050919050565b600081519050919050565b600081519050919050565b600081519050919050565b6000602082019050919050565b600082825260208201905092915050565b600082825260208201905092915050565b600082825260208201905092915050565b600061228182612336565b915061228c83612336565b9250827fffffffffffffffffffffffffffffffffffffffffffffffffffffffffffffffff038211156122c1576122c061242e565b5b828201905092915050565b60006122d782612316565b9050919050565b60008115159050919050565b60007fffffffff0000000000000000000000000000000000000000000000000000000082169050919050565b600073ffffffffffffffffffffffffffffffffffffffff82169050919050565b6000819050919050565b82818337600083830152505050565b60005b8381101561236d578082015181840152602081019050612352565b8381111561237c576000848401525b50505050565b6000600282049050600182168061239a57607f821691505b602082108114156123ae576123ad61245d565b5b50919050565b6123bd82612525565b810181811067ffffffffffffffff821117156123dc576123db6124bb565b5b80604052505050565b60006123f082612336565b91507fffffffffffffffffffffffffffffffffffffffffffffffffffffffffffffffff8214156124235761242261242e565b5b600182019050919050565b7f4e487b7100000000000000000000000000000000000000000000000000000000600052601160045260246000fd5b7f4e487b7100000000000000000000000000000000000000000000000000000000600052602260045260246000fd5b7f4e487b7100000000000000000000000000000000000000000000000000000000600052603260045260246000fd5b7f4e487b7100000000000000000000000000000000000000000000000000000000600052604160045260246000fd5b600060033d11156125095760046000803e612506600051612536565b90505b90565b600080fd5b600080fd5b600080fd5b600080fd5b600080fd5b6000601f19601f8301169050919050565b60008160e01c9050919050565b7f455243313135353a207472616e7366657220746f206e6f6e204552433131353560008201527f526563656976657220696d706c656d656e746572000000000000000000000000602082015250565b7f455243313135353a204552433131353552656365697665722072656a6563746560008201527f6420746f6b656e73000000000000000000000000000000000000000000000000602082015250565b7f455243313135353a2062616c616e636520717565727920666f7220746865207a60008201527f65726f2061646472657373000000000000000000000000000000000000000000602082015250565b7f455243313135353a2063616c6c6572206973206e6f74206f776e6572206e6f7260008201527f20617070726f7665640000000000000000000000000000000000000000000000602082015250565b7f455243313135353a207472616e7366657220746f20746865207a65726f20616460008201527f6472657373000000000000000000000000000000000000000000000000000000602082015250565b7f455243313135353a207472616e736665722063616c6c6572206973206e6f742060008201527f6f776e6572206e6f7220617070726f7665640000000000000000000000000000602082015250565b7f455243313135353a20696e73756666696369656e742062616c616e636520666f60008201527f72207472616e7366657200000000000000000000000000000000000000000000602082015250565b7f455243313135353a2073657474696e6720617070726f76616c2073746174757360008201527f20666f722073656c660000000000000000000000000000000000000000000000602082015250565b7f455243313135353a206163636f756e747320616e6420696473206c656e67746860008201527f206d69736d617463680000000000000000000000000000000000000000000000602082015250565b7f455243313135353a2069647320616e6420616d6f756e7473206c656e6774682060008201527f6d69736d61746368000000000000000000000000000000000000000000000000602082015250565b7f455243313135353a206d696e7420746f20746865207a65726f2061646472657360008201527f7300000000000000000000000000000000000000000000000000000000000000602082015250565b600060443d10156128b85761293b565b6128c0612172565b60043d036004823e80513d602482011167ffffffffffffffff821117156128e857505061293b565b808201805167ffffffffffffffff811115612906575050505061293b565b80602083010160043d03850181111561292357505050505061293b565b612932826020018501866123b4565b82955050505050505b90565b612947816122cc565b811461295257600080fd5b50565b61295e816122de565b811461296957600080fd5b50565b612975816122ea565b811461298057600080fd5b50565b61298c81612336565b811461299757600080fd5b5056fea26469706673582212205e4fdefe1fb529eb5e4b7872c87635dc423bd9cb327db5134354a7e6e73869a164736f6c6343000807003368747470733a2f2f6170692e756c74637562652e7363632e73682f6d696e746572732f7b69647d",
  "linkReferences": {},
  "deployedLinkReferences": {}
}